{
  "_format": "hh-sol-artifact-1",
  "contractName": "TestNFT721",
  "sourceName": "contracts/test/TestNFT721.sol",
  "abi": [
    {
      "anonymous": false,
      "inputs": [
        {
          "indexed": true,
          "internalType": "address",
          "name": "owner",
          "type": "address"
        },
        {
          "indexed": true,
          "internalType": "address",
          "name": "approved",
          "type": "address"
        },
        {
          "indexed": true,
          "internalType": "uint256",
          "name": "tokenId",
          "type": "uint256"
        }
      ],
      "name": "Approval",
      "type": "event"
    },
    {
      "anonymous": false,
      "inputs": [
        {
          "indexed": true,
          "internalType": "address",
          "name": "owner",
          "type": "address"
        },
        {
          "indexed": true,
          "internalType": "address",
          "name": "operator",
          "type": "address"
        },
        {
          "indexed": false,
          "internalType": "bool",
          "name": "approved",
          "type": "bool"
        }
      ],
      "name": "ApprovalForAll",
      "type": "event"
    },
    {
      "anonymous": false,
      "inputs": [
        {
          "indexed": true,
          "internalType": "address",
          "name": "from",
          "type": "address"
        },
        {
          "indexed": true,
          "internalType": "address",
          "name": "to",
          "type": "address"
        },
        {
          "indexed": true,
          "internalType": "uint256",
          "name": "tokenId",
          "type": "uint256"
        }
      ],
      "name": "Transfer",
      "type": "event"
    },
    {
      "inputs": [
        {
          "internalType": "address",
          "name": "to",
          "type": "address"
        },
        {
          "internalType": "uint256",
          "name": "tokenId",
          "type": "uint256"
        }
      ],
      "name": "approve",
      "outputs": [],
      "stateMutability": "nonpayable",
      "type": "function"
    },
    {
      "inputs": [
        {
          "internalType": "address",
          "name": "owner",
          "type": "address"
        }
      ],
      "name": "balanceOf",
      "outputs": [
        {
          "internalType": "uint256",
          "name": "",
          "type": "uint256"
        }
      ],
      "stateMutability": "view",
      "type": "function"
    },
    {
      "inputs": [],
      "name": "baseURI",
      "outputs": [
        {
          "internalType": "string",
          "name": "",
          "type": "string"
        }
      ],
      "stateMutability": "view",
      "type": "function"
    },
    {
      "inputs": [
        {
          "internalType": "uint256",
          "name": "tokenId",
          "type": "uint256"
        }
      ],
      "name": "getApproved",
      "outputs": [
        {
          "internalType": "address",
          "name": "",
          "type": "address"
        }
      ],
      "stateMutability": "view",
      "type": "function"
    },
    {
      "inputs": [
        {
          "internalType": "address",
          "name": "owner",
          "type": "address"
        },
        {
          "internalType": "address",
          "name": "operator",
          "type": "address"
        }
      ],
      "name": "isApprovedForAll",
      "outputs": [
        {
          "internalType": "bool",
          "name": "",
          "type": "bool"
        }
      ],
      "stateMutability": "view",
      "type": "function"
    },
    {
      "inputs": [
        {
          "internalType": "address",
          "name": "to",
          "type": "address"
        },
        {
          "internalType": "uint256",
          "name": "tokenId",
          "type": "uint256"
        }
      ],
      "name": "mint",
      "outputs": [],
      "stateMutability": "nonpayable",
      "type": "function"
    },
    {
      "inputs": [],
      "name": "name",
      "outputs": [
        {
          "internalType": "string",
          "name": "",
          "type": "string"
        }
      ],
      "stateMutability": "view",
      "type": "function"
    },
    {
      "inputs": [
        {
          "internalType": "uint256",
          "name": "tokenId",
          "type": "uint256"
        }
      ],
      "name": "ownerOf",
      "outputs": [
        {
          "internalType": "address",
          "name": "",
          "type": "address"
        }
      ],
      "stateMutability": "view",
      "type": "function"
    },
    {
      "inputs": [
        {
          "internalType": "address",
          "name": "to",
          "type": "address"
        },
        {
          "internalType": "uint256",
          "name": "tokenId",
          "type": "uint256"
        },
        {
          "internalType": "bytes",
          "name": "_data",
          "type": "bytes"
        }
      ],
      "name": "safeMint",
      "outputs": [],
      "stateMutability": "nonpayable",
      "type": "function"
    },
    {
      "inputs": [
        {
          "internalType": "address",
          "name": "to",
          "type": "address"
        },
        {
          "internalType": "uint256",
          "name": "tokenId",
          "type": "uint256"
        }
      ],
      "name": "safeMint",
      "outputs": [],
      "stateMutability": "nonpayable",
      "type": "function"
    },
    {
      "inputs": [
        {
          "internalType": "address",
          "name": "from",
          "type": "address"
        },
        {
          "internalType": "address",
          "name": "to",
          "type": "address"
        },
        {
          "internalType": "uint256",
          "name": "tokenId",
          "type": "uint256"
        }
      ],
      "name": "safeTransferFrom",
      "outputs": [],
      "stateMutability": "nonpayable",
      "type": "function"
    },
    {
      "inputs": [
        {
          "internalType": "address",
          "name": "from",
          "type": "address"
        },
        {
          "internalType": "address",
          "name": "to",
          "type": "address"
        },
        {
          "internalType": "uint256",
          "name": "tokenId",
          "type": "uint256"
        },
        {
          "internalType": "bytes",
          "name": "_data",
          "type": "bytes"
        }
      ],
      "name": "safeTransferFrom",
      "outputs": [],
      "stateMutability": "nonpayable",
      "type": "function"
    },
    {
      "inputs": [
        {
          "internalType": "address",
          "name": "operator",
          "type": "address"
        },
        {
          "internalType": "bool",
          "name": "approved",
          "type": "bool"
        }
      ],
      "name": "setApprovalForAll",
      "outputs": [],
      "stateMutability": "nonpayable",
      "type": "function"
    },
    {
      "inputs": [
        {
          "internalType": "string",
          "name": "baseURI_",
          "type": "string"
        }
      ],
      "name": "setBaseURI",
      "outputs": [],
      "stateMutability": "nonpayable",
      "type": "function"
    },
    {
      "inputs": [
        {
          "internalType": "uint256",
          "name": "tokenId",
          "type": "uint256"
        },
        {
          "internalType": "string",
          "name": "_tokenURI",
          "type": "string"
        }
      ],
      "name": "setTokenURI",
      "outputs": [],
      "stateMutability": "nonpayable",
      "type": "function"
    },
    {
      "inputs": [
        {
          "internalType": "bytes4",
          "name": "interfaceId",
          "type": "bytes4"
        }
      ],
      "name": "supportsInterface",
      "outputs": [
        {
          "internalType": "bool",
          "name": "",
          "type": "bool"
        }
      ],
      "stateMutability": "view",
      "type": "function"
    },
    {
      "inputs": [],
      "name": "symbol",
      "outputs": [
        {
          "internalType": "string",
          "name": "",
          "type": "string"
        }
      ],
      "stateMutability": "view",
      "type": "function"
    },
    {
      "inputs": [
        {
          "internalType": "uint256",
          "name": "index",
          "type": "uint256"
        }
      ],
      "name": "tokenByIndex",
      "outputs": [
        {
          "internalType": "uint256",
          "name": "",
          "type": "uint256"
        }
      ],
      "stateMutability": "view",
      "type": "function"
    },
    {
      "inputs": [
        {
          "internalType": "address",
          "name": "owner",
          "type": "address"
        },
        {
          "internalType": "uint256",
          "name": "index",
          "type": "uint256"
        }
      ],
      "name": "tokenOfOwnerByIndex",
      "outputs": [
        {
          "internalType": "uint256",
          "name": "",
          "type": "uint256"
        }
      ],
      "stateMutability": "view",
      "type": "function"
    },
    {
      "inputs": [
        {
          "internalType": "uint256",
          "name": "tokenId",
          "type": "uint256"
        }
      ],
      "name": "tokenURI",
      "outputs": [
        {
          "internalType": "string",
          "name": "",
          "type": "string"
        }
      ],
      "stateMutability": "view",
      "type": "function"
    },
    {
      "inputs": [],
      "name": "totalSupply",
      "outputs": [
        {
          "internalType": "uint256",
          "name": "",
          "type": "uint256"
        }
      ],
      "stateMutability": "view",
      "type": "function"
    },
    {
      "inputs": [
        {
          "internalType": "address",
          "name": "from",
          "type": "address"
        },
        {
          "internalType": "address",
          "name": "to",
          "type": "address"
        },
        {
          "internalType": "uint256",
          "name": "tokenId",
          "type": "uint256"
        }
      ],
      "name": "transferFrom",
      "outputs": [],
      "stateMutability": "nonpayable",
      "type": "function"
    }
  ],
  "bytecode": "0x60806040523480156200001157600080fd5b50604080518082018252600a815269546573744e465437323160b01b602080830191909152825180840190935260068352654e465437323160d01b9083015290620000636301ffc9a760e01b620000cd565b81516200007890600690602085019062000152565b5080516200008e90600790602084019062000152565b50620000a16380ac58cd60e01b620000cd565b620000b3635b5e139f60e01b620000cd565b620000c563780e9d6360e01b620000cd565b5050620001ee565b6001600160e01b031980821614156200012d576040805162461bcd60e51b815260206004820152601c60248201527f4552433136353a20696e76616c696420696e7465726661636520696400000000604482015290519081900360640190fd5b6001600160e01b0319166000908152602081905260409020805460ff19166001179055565b828054600181600116156101000203166002900490600052602060002090601f016020900481019282601f106200019557805160ff1916838001178555620001c5565b82800160010185558215620001c5579182015b82811115620001c5578251825591602001919060010190620001a8565b50620001d3929150620001d7565b5090565b5b80821115620001d35760008155600101620001d8565b611f3080620001fe6000396000f3fe608060405234801561001057600080fd5b50600436106101425760003560e01c806355f804b3116100b857806395d89b411161007c57806395d89b41146105b4578063a1448194146105bc578063a22cb465146105e8578063b88d4fde14610616578063c87b56dd146106da578063e985e9c5146106f757610142565b806355f804b31461040c5780636352211e146104b05780636c0360eb146104cd57806370a08231146104d55780638832e6e3146104fb57610142565b806318160ddd1161010a57806318160ddd1461031157806323b872dd1461032b5780632f745c591461036157806340c10f191461038d57806342842e0e146103b95780634f6ccce7146103ef57610142565b806301ffc9a71461014757806306fdde0314610182578063081812fc146101ff578063095ea7b314610238578063162094c414610266575b600080fd5b61016e6004803603602081101561015d57600080fd5b50356001600160e01b031916610725565b604080519115158252519081900360200190f35b61018a610748565b6040805160208082528351818301528351919283929083019185019080838360005b838110156101c45781810151838201526020016101ac565b50505050905090810190601f1680156101f15780820380516001836020036101000a031916815260200191505b509250505060405180910390f35b61021c6004803603602081101561021557600080fd5b50356107de565b604080516001600160a01b039092168252519081900360200190f35b6102646004803603604081101561024e57600080fd5b506001600160a01b038135169060200135610840565b005b6102646004803603604081101561027c57600080fd5b81359190810190604081016020820135600160201b81111561029d57600080fd5b8201836020820111156102af57600080fd5b803590602001918460018302840111600160201b831117156102d057600080fd5b91908080601f01602080910402602001604051908101604052809392919081815260200183838082843760009201919091525092955061091b945050505050565b610319610929565b60408051918252519081900360200190f35b6102646004803603606081101561034157600080fd5b506001600160a01b0381358116916020810135909116906040013561093a565b6103196004803603604081101561037757600080fd5b506001600160a01b038135169060200135610991565b610264600480360360408110156103a357600080fd5b506001600160a01b0381351690602001356109bc565b610264600480360360608110156103cf57600080fd5b506001600160a01b038135811691602081013590911690604001356109c6565b6103196004803603602081101561040557600080fd5b50356109e1565b6102646004803603602081101561042257600080fd5b810190602081018135600160201b81111561043c57600080fd5b82018360208201111561044e57600080fd5b803590602001918460018302840111600160201b8311171561046f57600080fd5b91908080601f0160208091040260200160405190810160405280939291908181526020018383808284376000920191909152509295506109f7945050505050565b61021c600480360360208110156104c657600080fd5b5035610a03565b61018a610a2b565b610319600480360360208110156104eb57600080fd5b50356001600160a01b0316610a8c565b6102646004803603606081101561051157600080fd5b6001600160a01b0382351691602081013591810190606081016040820135600160201b81111561054057600080fd5b82018360208201111561055257600080fd5b803590602001918460018302840111600160201b8311171561057357600080fd5b91908080601f016020809104026020016040519081016040528093929190818152602001838380828437600092019190915250929550610af4945050505050565b61018a610aff565b610264600480360360408110156105d257600080fd5b506001600160a01b038135169060200135610b60565b610264600480360360408110156105fe57600080fd5b506001600160a01b0381351690602001351515610b6a565b6102646004803603608081101561062c57600080fd5b6001600160a01b03823581169260208101359091169160408201359190810190608081016060820135600160201b81111561066657600080fd5b82018360208201111561067857600080fd5b803590602001918460018302840111600160201b8311171561069957600080fd5b91908080601f016020809104026020016040519081016040528093929190818152602001838380828437600092019190915250929550610c6f945050505050565b61018a600480360360208110156106f057600080fd5b5035610ccd565b61016e6004803603604081101561070d57600080fd5b506001600160a01b0381358116916020013516610f50565b6001600160e01b0319811660009081526020819052604090205460ff165b919050565b60068054604080516020601f60026000196101006001881615020190951694909404938401819004810282018101909252828152606093909290918301828280156107d45780601f106107a9576101008083540402835291602001916107d4565b820191906000526020600020905b8154815290600101906020018083116107b757829003601f168201915b5050505050905090565b60006107e982610f7e565b6108245760405162461bcd60e51b815260040180806020018281038252602c815260200180611df9602c913960400191505060405180910390fd5b506000908152600460205260409020546001600160a01b031690565b600061084b82610a03565b9050806001600160a01b0316836001600160a01b0316141561089e5760405162461bcd60e51b8152600401808060200182810382526021815260200180611ea96021913960400191505060405180910390fd5b806001600160a01b03166108b0610f8b565b6001600160a01b031614806108d157506108d1816108cc610f8b565b610f50565b61090c5760405162461bcd60e51b8152600401808060200182810382526038815260200180611d4c6038913960400191505060405180910390fd5b6109168383610f8f565b505050565b6109258282610ffd565b5050565b60006109356002611060565b905090565b61094b610945610f8b565b8261106b565b6109865760405162461bcd60e51b8152600401808060200182810382526031815260200180611eca6031913960400191505060405180910390fd5b61091683838361110f565b6001600160a01b03821660009081526001602052604081206109b3908361125b565b90505b92915050565b6109258282611267565b61091683838360405180602001604052806000815250610c6f565b6000806109ef600284611395565b509392505050565b610a00816113b1565b50565b60006109b682604051806060016040528060298152602001611dae60299139600291906113c4565b60098054604080516020601f60026000196101006001881615020190951694909404938401819004810282018101909252828152606093909290918301828280156107d45780601f106107a9576101008083540402835291602001916107d4565b60006001600160a01b038216610ad35760405162461bcd60e51b815260040180806020018281038252602a815260200180611d84602a913960400191505060405180910390fd5b6001600160a01b03821660009081526001602052604090206109b690611060565b6109168383836113db565b60078054604080516020601f60026000196101006001881615020190951694909404938401819004810282018101909252828152606093909290918301828280156107d45780601f106107a9576101008083540402835291602001916107d4565b610925828261142d565b610b72610f8b565b6001600160a01b0316826001600160a01b03161415610bd8576040805162461bcd60e51b815260206004820152601960248201527f4552433732313a20617070726f766520746f2063616c6c657200000000000000604482015290519081900360640190fd5b8060056000610be5610f8b565b6001600160a01b03908116825260208083019390935260409182016000908120918716808252919093529120805460ff191692151592909217909155610c29610f8b565b6001600160a01b03167f17307eab39ab6107e8899845ad3d59bd9653f200f220920489ca2b5937696c318360405180821515815260200191505060405180910390a35050565b610c80610c7a610f8b565b8361106b565b610cbb5760405162461bcd60e51b8152600401808060200182810382526031815260200180611eca6031913960400191505060405180910390fd5b610cc784848484611447565b50505050565b6060610cd882610f7e565b610d135760405162461bcd60e51b815260040180806020018281038252602f815260200180611e7a602f913960400191505060405180910390fd5b60008281526008602090815260409182902080548351601f6002600019610100600186161502019093169290920491820184900484028101840190945280845260609392830182828015610da85780601f10610d7d57610100808354040283529160200191610da8565b820191906000526020600020905b815481529060010190602001808311610d8b57829003601f168201915b505050505090506060610db9610a2b565b9050805160001415610dcd57509050610743565b815115610e8e5780826040516020018083805190602001908083835b60208310610e085780518252601f199092019160209182019101610de9565b51815160209384036101000a600019018019909216911617905285519190930192850191508083835b60208310610e505780518252601f199092019160209182019101610e31565b6001836020036101000a0380198251168184511680821785525050505050509050019250505060405160208183030381529060405292505050610743565b80610e9885611499565b6040516020018083805190602001908083835b60208310610eca5780518252601f199092019160209182019101610eab565b51815160209384036101000a600019018019909216911617905285519190930192850191508083835b60208310610f125780518252601f199092019160209182019101610ef3565b6001836020036101000a0380198251168184511680821785525050505050509050019250505060405160208183030381529060405292505050919050565b6001600160a01b03918216600090815260056020908152604080832093909416825291909152205460ff1690565b60006109b6600283611574565b3390565b600081815260046020526040902080546001600160a01b0319166001600160a01b0384169081179091558190610fc482610a03565b6001600160a01b03167f8c5be1e5ebec7d5bd14f71427d1e84f3dd0314c0f7b2291e5b200ac8c7c3b92560405160405180910390a45050565b61100682610f7e565b6110415760405162461bcd60e51b815260040180806020018281038252602c815260200180611e25602c913960400191505060405180910390fd5b6000828152600860209081526040909120825161091692840190611c14565b60006109b682611580565b600061107682610f7e565b6110b15760405162461bcd60e51b815260040180806020018281038252602c815260200180611d20602c913960400191505060405180910390fd5b60006110bc83610a03565b9050806001600160a01b0316846001600160a01b031614806110f75750836001600160a01b03166110ec846107de565b6001600160a01b0316145b8061110757506111078185610f50565b949350505050565b826001600160a01b031661112282610a03565b6001600160a01b0316146111675760405162461bcd60e51b8152600401808060200182810382526029815260200180611e516029913960400191505060405180910390fd5b6001600160a01b0382166111ac5760405162461bcd60e51b8152600401808060200182810382526024815260200180611cfc6024913960400191505060405180910390fd5b6111b7838383610916565b6111c2600082610f8f565b6001600160a01b03831660009081526001602052604090206111e49082611584565b506001600160a01b03821660009081526001602052604090206112079082611590565b506112146002828461159c565b5080826001600160a01b0316846001600160a01b03167fddf252ad1be2c89b69c2b068fc378daa952ba7f163c4a11628f55a4df523b3ef60405160405180910390a4505050565b60006109b383836115b2565b6001600160a01b0382166112c2576040805162461bcd60e51b815260206004820181905260248201527f4552433732313a206d696e7420746f20746865207a65726f2061646472657373604482015290519081900360640190fd5b6112cb81610f7e565b1561131d576040805162461bcd60e51b815260206004820152601c60248201527f4552433732313a20746f6b656e20616c7265616479206d696e74656400000000604482015290519081900360640190fd5b61132960008383610916565b6001600160a01b038216600090815260016020526040902061134b9082611590565b506113586002828461159c565b5060405181906001600160a01b038416906000907fddf252ad1be2c89b69c2b068fc378daa952ba7f163c4a11628f55a4df523b3ef908290a45050565b60008080806113a48686611616565b9097909650945050505050565b8051610925906009906020840190611c14565b60006113d1848484611691565b90505b9392505050565b6113e58383611267565b6113f2600084848461175b565b6109165760405162461bcd60e51b8152600401808060200182810382526032815260200180611cca6032913960400191505060405180910390fd5b6109258282604051806020016040528060008152506113db565b61145284848461110f565b61145e8484848461175b565b610cc75760405162461bcd60e51b8152600401808060200182810382526032815260200180611cca6032913960400191505060405180910390fd5b6060816114be57506040805180820190915260018152600360fc1b6020820152610743565b8160005b81156114d657600101600a820491506114c2565b60608167ffffffffffffffff811180156114ef57600080fd5b506040519080825280601f01601f19166020018201604052801561151a576020820181803683370190505b50859350905060001982015b831561156b57600a840660300160f81b8282806001900393508151811061154957fe5b60200101906001600160f81b031916908160001a905350600a84049350611526565b50949350505050565b60006109b383836118c3565b5490565b60006109b383836118db565b60006109b383836119a1565b60006113d184846001600160a01b0385166119eb565b815460009082106115f45760405162461bcd60e51b8152600401808060200182810382526022815260200180611ca86022913960400191505060405180910390fd5b82600001828154811061160357fe5b9060005260206000200154905092915050565b81546000908190831061165a5760405162461bcd60e51b8152600401808060200182810382526022815260200180611dd76022913960400191505060405180910390fd5b600084600001848154811061166b57fe5b906000526020600020906002020190508060000154816001015492509250509250929050565b6000828152600184016020526040812054828161172c5760405162461bcd60e51b81526004018080602001828103825283818151815260200191508051906020019080838360005b838110156116f15781810151838201526020016116d9565b50505050905090810190601f16801561171e5780820380516001836020036101000a031916815260200191505b509250505060405180910390fd5b5084600001600182038154811061173f57fe5b9060005260206000209060020201600101549150509392505050565b600061176f846001600160a01b0316611a82565b61177b57506001611107565b6060611889630a85bd0160e11b611790610f8b565b88878760405160240180856001600160a01b03168152602001846001600160a01b0316815260200183815260200180602001828103825283818151815260200191508051906020019080838360005b838110156117f75781810151838201526020016117df565b50505050905090810190601f1680156118245780820380516001836020036101000a031916815260200191505b5095505050505050604051602081830303815290604052906001600160e01b0319166020820180516001600160e01b038381831617835250505050604051806060016040528060328152602001611cca603291396001600160a01b0388169190611a88565b905060008180602001905160208110156118a257600080fd5b50516001600160e01b031916630a85bd0160e11b1492505050949350505050565b60009081526001919091016020526040902054151590565b60008181526001830160205260408120548015611997578354600019808301919081019060009087908390811061190e57fe5b906000526020600020015490508087600001848154811061192b57fe5b60009182526020808320909101929092558281526001898101909252604090209084019055865487908061195b57fe5b600190038181906000526020600020016000905590558660010160008781526020019081526020016000206000905560019450505050506109b6565b60009150506109b6565b60006119ad83836118c3565b6119e3575081546001818101845560008481526020808220909301849055845484825282860190935260409020919091556109b6565b5060006109b6565b600082815260018401602052604081205480611a505750506040805180820182528381526020808201848152865460018181018955600089815284812095516002909302909501918255915190820155865486845281880190925292909120556113d4565b82856000016001830381548110611a6357fe5b90600052602060002090600202016001018190555060009150506113d4565b3b151590565b60606113d1848460008585611a9c85611a82565b611aed576040805162461bcd60e51b815260206004820152601d60248201527f416464726573733a2063616c6c20746f206e6f6e2d636f6e7472616374000000604482015290519081900360640190fd5b60006060866001600160a01b031685876040518082805190602001908083835b60208310611b2c5780518252601f199092019160209182019101611b0d565b6001836020036101000a03801982511681845116808217855250505050505090500191505060006040518083038185875af1925050503d8060008114611b8e576040519150601f19603f3d011682016040523d82523d6000602084013e611b93565b606091505b5091509150611ba3828286611bae565b979650505050505050565b60608315611bbd5750816113d4565b825115611bcd5782518084602001fd5b60405162461bcd60e51b81526020600482018181528451602484015284518593919283926044019190850190808383600083156116f15781810151838201526020016116d9565b828054600181600116156101000203166002900490600052602060002090601f016020900481019282601f10611c5557805160ff1916838001178555611c82565b82800160010185558215611c82579182015b82811115611c82578251825591602001919060010190611c67565b50611c8e929150611c92565b5090565b5b80821115611c8e5760008155600101611c9356fe456e756d657261626c655365743a20696e646578206f7574206f6620626f756e64734552433732313a207472616e7366657220746f206e6f6e20455243373231526563656976657220696d706c656d656e7465724552433732313a207472616e7366657220746f20746865207a65726f20616464726573734552433732313a206f70657261746f7220717565727920666f72206e6f6e6578697374656e7420746f6b656e4552433732313a20617070726f76652063616c6c6572206973206e6f74206f776e6572206e6f7220617070726f76656420666f7220616c6c4552433732313a2062616c616e636520717565727920666f7220746865207a65726f20616464726573734552433732313a206f776e657220717565727920666f72206e6f6e6578697374656e7420746f6b656e456e756d657261626c654d61703a20696e646578206f7574206f6620626f756e64734552433732313a20617070726f76656420717565727920666f72206e6f6e6578697374656e7420746f6b656e4552433732314d657461646174613a2055524920736574206f66206e6f6e6578697374656e7420746f6b656e4552433732313a207472616e73666572206f6620746f6b656e2074686174206973206e6f74206f776e4552433732314d657461646174613a2055524920717565727920666f72206e6f6e6578697374656e7420746f6b656e4552433732313a20617070726f76616c20746f2063757272656e74206f776e65724552433732313a207472616e736665722063616c6c6572206973206e6f74206f776e6572206e6f7220617070726f766564a26469706673582212207679d299cf91ee92615b89da31cfdd963425c3b989cdd889ef9ad15c493e09b664736f6c634300060c0033",
  "linkReferences": {},
  "deployedLinkReferences": {}
}