{
  "_format": "hh-sol-artifact-1",
  "contractName": "TestNFT1155",
  "sourceName": "contracts/test/TestNFT1155.sol",
  "abi": [
    {
      "inputs": [],
      "stateMutability": "nonpayable",
      "type": "constructor"
    },
    {
      "anonymous": false,
      "inputs": [
        {
          "indexed": true,
          "internalType": "address",
          "name": "account",
          "type": "address"
        },
        {
          "indexed": true,
          "internalType": "address",
          "name": "operator",
          "type": "address"
        },
        {
          "indexed": false,
          "internalType": "bool",
          "name": "approved",
          "type": "bool"
        }
      ],
      "name": "ApprovalForAll",
      "type": "event"
    },
    {
      "anonymous": false,
      "inputs": [
        {
          "indexed": true,
          "internalType": "address",
          "name": "operator",
          "type": "address"
        },
        {
          "indexed": true,
          "internalType": "address",
          "name": "from",
          "type": "address"
        },
        {
          "indexed": true,
          "internalType": "address",
          "name": "to",
          "type": "address"
        },
        {
          "indexed": false,
          "internalType": "uint256[]",
          "name": "ids",
          "type": "uint256[]"
        },
        {
          "indexed": false,
          "internalType": "uint256[]",
          "name": "values",
          "type": "uint256[]"
        }
      ],
      "name": "TransferBatch",
      "type": "event"
    },
    {
      "anonymous": false,
      "inputs": [
        {
          "indexed": true,
          "internalType": "address",
          "name": "operator",
          "type": "address"
        },
        {
          "indexed": true,
          "internalType": "address",
          "name": "from",
          "type": "address"
        },
        {
          "indexed": true,
          "internalType": "address",
          "name": "to",
          "type": "address"
        },
        {
          "indexed": false,
          "internalType": "uint256",
          "name": "id",
          "type": "uint256"
        },
        {
          "indexed": false,
          "internalType": "uint256",
          "name": "value",
          "type": "uint256"
        }
      ],
      "name": "TransferSingle",
      "type": "event"
    },
    {
      "anonymous": false,
      "inputs": [
        {
          "indexed": false,
          "internalType": "string",
          "name": "value",
          "type": "string"
        },
        {
          "indexed": true,
          "internalType": "uint256",
          "name": "id",
          "type": "uint256"
        }
      ],
      "name": "URI",
      "type": "event"
    },
    {
      "inputs": [
        {
          "internalType": "address",
          "name": "account",
          "type": "address"
        },
        {
          "internalType": "uint256",
          "name": "id",
          "type": "uint256"
        }
      ],
      "name": "balanceOf",
      "outputs": [
        {
          "internalType": "uint256",
          "name": "",
          "type": "uint256"
        }
      ],
      "stateMutability": "view",
      "type": "function"
    },
    {
      "inputs": [
        {
          "internalType": "address[]",
          "name": "accounts",
          "type": "address[]"
        },
        {
          "internalType": "uint256[]",
          "name": "ids",
          "type": "uint256[]"
        }
      ],
      "name": "balanceOfBatch",
      "outputs": [
        {
          "internalType": "uint256[]",
          "name": "",
          "type": "uint256[]"
        }
      ],
      "stateMutability": "view",
      "type": "function"
    },
    {
      "inputs": [
        {
          "internalType": "uint256",
          "name": "",
          "type": "uint256"
        }
      ],
      "name": "creators",
      "outputs": [
        {
          "internalType": "address",
          "name": "",
          "type": "address"
        }
      ],
      "stateMutability": "view",
      "type": "function"
    },
    {
      "inputs": [
        {
          "internalType": "address",
          "name": "account",
          "type": "address"
        },
        {
          "internalType": "address",
          "name": "operator",
          "type": "address"
        }
      ],
      "name": "isApprovedForAll",
      "outputs": [
        {
          "internalType": "bool",
          "name": "",
          "type": "bool"
        }
      ],
      "stateMutability": "view",
      "type": "function"
    },
    {
      "inputs": [
        {
          "internalType": "address",
          "name": "account",
          "type": "address"
        },
        {
          "internalType": "uint256",
          "name": "id",
          "type": "uint256"
        },
        {
          "internalType": "uint256",
          "name": "amount",
          "type": "uint256"
        },
        {
          "internalType": "string",
          "name": "_tokenURI",
          "type": "string"
        }
      ],
      "name": "mint",
      "outputs": [],
      "stateMutability": "nonpayable",
      "type": "function"
    },
    {
      "inputs": [
        {
          "internalType": "address",
          "name": "from",
          "type": "address"
        },
        {
          "internalType": "address",
          "name": "to",
          "type": "address"
        },
        {
          "internalType": "uint256[]",
          "name": "ids",
          "type": "uint256[]"
        },
        {
          "internalType": "uint256[]",
          "name": "amounts",
          "type": "uint256[]"
        },
        {
          "internalType": "bytes",
          "name": "data",
          "type": "bytes"
        }
      ],
      "name": "safeBatchTransferFrom",
      "outputs": [],
      "stateMutability": "nonpayable",
      "type": "function"
    },
    {
      "inputs": [
        {
          "internalType": "address",
          "name": "from",
          "type": "address"
        },
        {
          "internalType": "address",
          "name": "to",
          "type": "address"
        },
        {
          "internalType": "uint256",
          "name": "id",
          "type": "uint256"
        },
        {
          "internalType": "uint256",
          "name": "amount",
          "type": "uint256"
        },
        {
          "internalType": "bytes",
          "name": "data",
          "type": "bytes"
        }
      ],
      "name": "safeTransferFrom",
      "outputs": [],
      "stateMutability": "nonpayable",
      "type": "function"
    },
    {
      "inputs": [
        {
          "internalType": "address",
          "name": "operator",
          "type": "address"
        },
        {
          "internalType": "bool",
          "name": "approved",
          "type": "bool"
        }
      ],
      "name": "setApprovalForAll",
      "outputs": [],
      "stateMutability": "nonpayable",
      "type": "function"
    },
    {
      "inputs": [
        {
          "internalType": "bytes4",
          "name": "interfaceId",
          "type": "bytes4"
        }
      ],
      "name": "supportsInterface",
      "outputs": [
        {
          "internalType": "bool",
          "name": "",
          "type": "bool"
        }
      ],
      "stateMutability": "view",
      "type": "function"
    },
    {
      "inputs": [
        {
          "internalType": "uint256",
          "name": "",
          "type": "uint256"
        }
      ],
      "name": "tokenSupply",
      "outputs": [
        {
          "internalType": "uint256",
          "name": "",
          "type": "uint256"
        }
      ],
      "stateMutability": "view",
      "type": "function"
    },
    {
      "inputs": [
        {
          "internalType": "uint256",
          "name": "id",
          "type": "uint256"
        }
      ],
      "name": "uri",
      "outputs": [
        {
          "internalType": "string",
          "name": "",
          "type": "string"
        }
      ],
      "stateMutability": "view",
      "type": "function"
    }
  ],
  "bytecode": "0x60806040523480156200001157600080fd5b5060408051808201909152600b81526a546573744e46543131353560a81b6020820152620000466301ffc9a760e01b6200007c565b620000518162000101565b62000063636cdb3d1360e11b6200007c565b620000756303a24d0760e21b6200007c565b50620001b6565b6001600160e01b03198082161415620000dc576040805162461bcd60e51b815260206004820152601c60248201527f4552433136353a20696e76616c696420696e7465726661636520696400000000604482015290519081900360640190fd5b6001600160e01b0319166000908152602081905260409020805460ff19166001179055565b8051620001169060039060208401906200011a565b5050565b828054600181600116156101000203166002900490600052602060002090601f016020900481019282601f106200015d57805160ff19168380011785556200018d565b828001600101855582156200018d579182015b828111156200018d57825182559160200191906001019062000170565b506200019b9291506200019f565b5090565b5b808211156200019b5760008155600101620001a0565b61190180620001c66000396000f3fe608060405234801561001057600080fd5b50600436106100a85760003560e01c80634e1273f4116100715780634e1273f414610398578063a22cb4651461050b578063bb7fde7114610539578063cd53d08e146105c3578063e985e9c5146105fc578063f242432a1461062a576100a8565b8062fdd58e146100ad57806301ffc9a7146100eb5780630e89341c146101265780632693ebf2146101b85780632eb2c2d6146101d5575b600080fd5b6100d9600480360360408110156100c357600080fd5b506001600160a01b0381351690602001356106f3565b60408051918252519081900360200190f35b6101126004803603602081101561010157600080fd5b50356001600160e01b031916610762565b604080519115158252519081900360200190f35b6101436004803603602081101561013c57600080fd5b5035610781565b6040805160208082528351818301528351919283929083019185019080838360005b8381101561017d578181015183820152602001610165565b50505050905090810190601f1680156101aa5780820380516001836020036101000a031916815260200191505b509250505060405180910390f35b6100d9600480360360208110156101ce57600080fd5b5035610822565b610396600480360360a08110156101eb57600080fd5b6001600160a01b038235811692602081013590911691810190606081016040820135600160201b81111561021e57600080fd5b82018360208201111561023057600080fd5b803590602001918460208302840111600160201b8311171561025157600080fd5b9190808060200260200160405190810160405280939291908181526020018383602002808284376000920191909152509295949360208101935035915050600160201b8111156102a057600080fd5b8201836020820111156102b257600080fd5b803590602001918460208302840111600160201b831117156102d357600080fd5b9190808060200260200160405190810160405280939291908181526020018383602002808284376000920191909152509295949360208101935035915050600160201b81111561032257600080fd5b82018360208201111561033457600080fd5b803590602001918460018302840111600160201b8311171561035557600080fd5b91908080601f016020809104026020016040519081016040528093929190818152602001838380828437600092019190915250929550610834945050505050565b005b6104bb600480360360408110156103ae57600080fd5b810190602081018135600160201b8111156103c857600080fd5b8201836020820111156103da57600080fd5b803590602001918460208302840111600160201b831117156103fb57600080fd5b9190808060200260200160405190810160405280939291908181526020018383602002808284376000920191909152509295949360208101935035915050600160201b81111561044a57600080fd5b82018360208201111561045c57600080fd5b803590602001918460208302840111600160201b8311171561047d57600080fd5b919080806020026020016040519081016040528093929190818152602001838360200280828437600092019190915250929550610b32945050505050565b60408051602080825283518183015283519192839290830191858101910280838360005b838110156104f75781810151838201526020016104df565b505050509050019250505060405180910390f35b6103966004803603604081101561052157600080fd5b506001600160a01b0381351690602001351515610c1e565b6103966004803603608081101561054f57600080fd5b6001600160a01b038235169160208101359160408201359190810190608081016060820135600160201b81111561058557600080fd5b82018360208201111561059757600080fd5b803590602001918460018302840111600160201b831117156105b857600080fd5b509092509050610d0d565b6105e0600480360360208110156105d957600080fd5b5035610d6e565b604080516001600160a01b039092168252519081900360200190f35b6101126004803603604081101561061257600080fd5b506001600160a01b0381358116916020013516610d89565b610396600480360360a081101561064057600080fd5b6001600160a01b03823581169260208101359091169160408201359160608101359181019060a081016080820135600160201b81111561067f57600080fd5b82018360208201111561069157600080fd5b803590602001918460018302840111600160201b831117156106b257600080fd5b91908080601f016020809104026020016040519081016040528093929190818152602001838380828437600092019190915250929550610db7945050505050565b60006001600160a01b03831661073a5760405162461bcd60e51b815260040180806020018281038252602b81526020018061175c602b913960400191505060405180910390fd5b5060009081526001602090815260408083206001600160a01b03949094168352929052205490565b6001600160e01b03191660009081526020819052604090205460ff1690565b60008181526006602090815260409182902080548351601f60026000196101006001861615020190931692909204918201849004840281018401909452808452606093928301828280156108165780601f106107eb57610100808354040283529160200191610816565b820191906000526020600020905b8154815290600101906020018083116107f957829003601f168201915b50505050509050919050565b60056020526000908152604090205481565b81518351146108745760405162461bcd60e51b81526004018080602001828103825260288152602001806118836028913960400191505060405180910390fd5b6001600160a01b0384166108b95760405162461bcd60e51b81526004018080602001828103825260258152602001806117b06025913960400191505060405180910390fd5b6108c1610f82565b6001600160a01b0316856001600160a01b031614806108ec57506108ec856108e7610f82565b610d89565b6109275760405162461bcd60e51b81526004018080602001828103825260328152602001806117d56032913960400191505060405180910390fd5b6000610931610f82565b9050610941818787878787610b2a565b60005b8451811015610a4257600085828151811061095b57fe5b60200260200101519050600085838151811061097357fe5b602002602001015190506109e0816040518060600160405280602a8152602001611807602a91396001600086815260200190815260200160002060008d6001600160a01b03166001600160a01b0316815260200190815260200160002054610f879092919063ffffffff16565b60008381526001602090815260408083206001600160a01b038e811685529252808320939093558a1681522054610a17908261101e565b60009283526001602081815260408086206001600160a01b038d168752909152909320555001610944565b50846001600160a01b0316866001600160a01b0316826001600160a01b03167f4a39dc06d4c0dbc64b70af90fd698a233a518aa5d07e595d983b8c0526c8f7fb8787604051808060200180602001838103835285818151815260200191508051906020019060200280838360005b83811015610ac8578181015183820152602001610ab0565b50505050905001838103825284818151815260200191508051906020019060200280838360005b83811015610b07578181015183820152602001610aef565b5050505090500194505050505060405180910390a4610b2a81878787878761107f565b505050505050565b60608151835114610b745760405162461bcd60e51b815260040180806020018281038252602981526020018061185a6029913960400191505060405180910390fd5b6060835167ffffffffffffffff81118015610b8e57600080fd5b50604051908082528060200260200182016040528015610bb8578160200160208202803683370190505b50905060005b8451811015610c1657610bf7858281518110610bd657fe5b6020026020010151858381518110610bea57fe5b60200260200101516106f3565b828281518110610c0357fe5b6020908102919091010152600101610bbe565b509392505050565b816001600160a01b0316610c30610f82565b6001600160a01b03161415610c765760405162461bcd60e51b81526004018080602001828103825260298152602001806118316029913960400191505060405180910390fd5b8060026000610c83610f82565b6001600160a01b03908116825260208083019390935260409182016000908120918716808252919093529120805460ff191692151592909217909155610cc7610f82565b6001600160a01b03167f17307eab39ab6107e8899845ad3d59bd9653f200f220920489ca2b5937696c318360405180821515815260200191505060405180910390a35050565b610d28858585604051806020016040528060008152506112fe565b600084815260046020908152604080832080546001600160a01b0319166001600160a01b038a161790556005825280832086905560069091529020610b2a9083836115c1565b6004602052600090815260409020546001600160a01b031681565b6001600160a01b03918216600090815260026020908152604080832093909416825291909152205460ff1690565b6001600160a01b038416610dfc5760405162461bcd60e51b81526004018080602001828103825260258152602001806117b06025913960400191505060405180910390fd5b610e04610f82565b6001600160a01b0316856001600160a01b03161480610e2a5750610e2a856108e7610f82565b610e655760405162461bcd60e51b81526004018080602001828103825260298152602001806117876029913960400191505060405180910390fd5b6000610e6f610f82565b9050610e8f818787610e8088611406565b610e8988611406565b87610b2a565b610ed6836040518060600160405280602a8152602001611807602a913960008781526001602090815260408083206001600160a01b038d1684529091529020549190610f87565b60008581526001602090815260408083206001600160a01b038b81168552925280832093909355871681522054610f0d908461101e565b60008581526001602090815260408083206001600160a01b03808b168086529184529382902094909455805188815291820187905280518a8416938616927fc3d58168c5ae7397731d063d5bbf3d657854427343f4c083240f7aacaa2d0f6292908290030190a4610b2a81878787878761144a565b335b90565b600081848411156110165760405162461bcd60e51b81526004018080602001828103825283818151815260200191508051906020019080838360005b83811015610fdb578181015183820152602001610fc3565b50505050905090810190601f1680156110085780820380516001836020036101000a031916815260200191505b509250505060405180910390fd5b505050900390565b600082820183811015611078576040805162461bcd60e51b815260206004820152601b60248201527f536166654d6174683a206164646974696f6e206f766572666c6f770000000000604482015290519081900360640190fd5b9392505050565b611091846001600160a01b03166115bb565b15610b2a57836001600160a01b031663bc197c8187878686866040518663ffffffff1660e01b815260040180866001600160a01b03168152602001856001600160a01b03168152602001806020018060200180602001848103845287818151815260200191508051906020019060200280838360005b8381101561111f578181015183820152602001611107565b50505050905001848103835286818151815260200191508051906020019060200280838360005b8381101561115e578181015183820152602001611146565b50505050905001848103825285818151815260200191508051906020019080838360005b8381101561119a578181015183820152602001611182565b50505050905090810190601f1680156111c75780820380516001836020036101000a031916815260200191505b5098505050505050505050602060405180830381600087803b1580156111ec57600080fd5b505af192505050801561121157506040513d602081101561120c57600080fd5b505160015b6112a65761121d61165a565b80611228575061126f565b60405162461bcd60e51b8152602060048201818152835160248401528351849391928392604401919085019080838360008315610fdb578181015183820152602001610fc3565b60405162461bcd60e51b81526004018080602001828103825260348152602001806117006034913960400191505060405180910390fd5b6001600160e01b0319811663bc197c8160e01b146112f55760405162461bcd60e51b81526004018080602001828103825260288152602001806117346028913960400191505060405180910390fd5b50505050505050565b6001600160a01b0384166113435760405162461bcd60e51b81526004018080602001828103825260218152602001806118ab6021913960400191505060405180910390fd5b600061134d610f82565b905061135f81600087610e8088611406565b60008481526001602090815260408083206001600160a01b038916845290915290205461138c908461101e565b60008581526001602090815260408083206001600160a01b03808b16808652918452828520959095558151898152928301889052815190948616927fc3d58168c5ae7397731d063d5bbf3d657854427343f4c083240f7aacaa2d0f6292908290030190a46113ff8160008787878761144a565b5050505050565b60408051600180825281830190925260609182919060208083019080368337019050509050828160008151811061143957fe5b602090810291909101015292915050565b61145c846001600160a01b03166115bb565b15610b2a57836001600160a01b031663f23a6e6187878686866040518663ffffffff1660e01b815260040180866001600160a01b03168152602001856001600160a01b0316815260200184815260200183815260200180602001828103825283818151815260200191508051906020019080838360005b838110156114eb5781810151838201526020016114d3565b50505050905090810190601f1680156115185780820380516001836020036101000a031916815260200191505b509650505050505050602060405180830381600087803b15801561153b57600080fd5b505af192505050801561156057506040513d602081101561155b57600080fd5b505160015b61156c5761121d61165a565b6001600160e01b0319811663f23a6e6160e01b146112f55760405162461bcd60e51b81526004018080602001828103825260288152602001806117346028913960400191505060405180910390fd5b3b151590565b828054600181600116156101000203166002900490600052602060002090601f016020900481019282601f106116025782800160ff1982351617855561162f565b8280016001018555821561162f579182015b8281111561162f578235825591602001919060010190611614565b5061163b92915061163f565b5090565b5b8082111561163b5760008155600101611640565b60e01c90565b600060443d101561166a57610f84565b600481823e6308c379a061167e8251611654565b1461168857610f84565b6040513d600319016004823e80513d67ffffffffffffffff81602484011181841117156116b85750505050610f84565b828401925082519150808211156116d25750505050610f84565b503d830160208284010111156116ea57505050610f84565b601f01601f191681016020016040529150509056fe455243313135353a207472616e7366657220746f206e6f6e2045524331313535526563656976657220696d706c656d656e746572455243313135353a204552433131353552656365697665722072656a656374656420746f6b656e73455243313135353a2062616c616e636520717565727920666f7220746865207a65726f2061646472657373455243313135353a2063616c6c6572206973206e6f74206f776e6572206e6f7220617070726f766564455243313135353a207472616e7366657220746f20746865207a65726f2061646472657373455243313135353a207472616e736665722063616c6c6572206973206e6f74206f776e6572206e6f7220617070726f766564455243313135353a20696e73756666696369656e742062616c616e636520666f72207472616e73666572455243313135353a2073657474696e6720617070726f76616c2073746174757320666f722073656c66455243313135353a206163636f756e747320616e6420696473206c656e677468206d69736d61746368455243313135353a2069647320616e6420616d6f756e7473206c656e677468206d69736d61746368455243313135353a206d696e7420746f20746865207a65726f2061646472657373a26469706673582212207d18c1629de41a2e6fe400218b522e6b56522e693210f7cbbd2f1e1a355ca47b64736f6c634300060c0033",
  "linkReferences": {},
  "deployedLinkReferences": {}
}