{
  "_format": "hh-sol-artifact-1",
  "contractName": "Bank1155",
  "sourceName": "contracts/Bank1155.sol",
  "abi": [
    {
      "inputs": [],
      "stateMutability": "nonpayable",
      "type": "constructor"
    },
    {
      "anonymous": false,
      "inputs": [
        {
          "indexed": true,
          "internalType": "address",
          "name": "token",
          "type": "address"
        },
        {
          "indexed": true,
          "internalType": "uint256",
          "name": "id",
          "type": "uint256"
        },
        {
          "indexed": true,
          "internalType": "address",
          "name": "from",
          "type": "address"
        },
        {
          "indexed": false,
          "internalType": "address",
          "name": "to",
          "type": "address"
        }
      ],
      "name": "Claim",
      "type": "event"
    },
    {
      "anonymous": false,
      "inputs": [
        {
          "indexed": true,
          "internalType": "address",
          "name": "token",
          "type": "address"
        },
        {
          "indexed": true,
          "internalType": "uint256",
          "name": "id",
          "type": "uint256"
        },
        {
          "indexed": true,
          "internalType": "address",
          "name": "to",
          "type": "address"
        },
        {
          "indexed": false,
          "internalType": "uint256",
          "name": "value",
          "type": "uint256"
        }
      ],
      "name": "Deposit",
      "type": "event"
    },
    {
      "anonymous": false,
      "inputs": [
        {
          "indexed": true,
          "internalType": "address",
          "name": "token",
          "type": "address"
        },
        {
          "indexed": true,
          "internalType": "uint256",
          "name": "id",
          "type": "uint256"
        },
        {
          "indexed": true,
          "internalType": "address",
          "name": "from",
          "type": "address"
        },
        {
          "indexed": false,
          "internalType": "address",
          "name": "to",
          "type": "address"
        }
      ],
      "name": "Password",
      "type": "event"
    },
    {
      "anonymous": false,
      "inputs": [
        {
          "indexed": true,
          "internalType": "address",
          "name": "token",
          "type": "address"
        },
        {
          "indexed": true,
          "internalType": "uint256",
          "name": "id",
          "type": "uint256"
        },
        {
          "indexed": true,
          "internalType": "address",
          "name": "to",
          "type": "address"
        },
        {
          "indexed": false,
          "internalType": "uint256",
          "name": "value",
          "type": "uint256"
        }
      ],
      "name": "Withdraw",
      "type": "event"
    },
    {
      "inputs": [],
      "name": "CLAIM_TYPEHASH",
      "outputs": [
        {
          "internalType": "bytes32",
          "name": "",
          "type": "bytes32"
        }
      ],
      "stateMutability": "view",
      "type": "function"
    },
    {
      "inputs": [],
      "name": "DOMAIN_SEPARATOR",
      "outputs": [
        {
          "internalType": "bytes32",
          "name": "",
          "type": "bytes32"
        }
      ],
      "stateMutability": "view",
      "type": "function"
    },
    {
      "inputs": [],
      "name": "PASSWORD_TYPEHASH",
      "outputs": [
        {
          "internalType": "bytes32",
          "name": "",
          "type": "bytes32"
        }
      ],
      "stateMutability": "view",
      "type": "function"
    },
    {
      "inputs": [
        {
          "internalType": "address",
          "name": "token",
          "type": "address"
        },
        {
          "internalType": "uint256",
          "name": "id",
          "type": "uint256"
        },
        {
          "internalType": "address",
          "name": "owner",
          "type": "address"
        },
        {
          "internalType": "address",
          "name": "spender",
          "type": "address"
        },
        {
          "internalType": "uint256",
          "name": "deadline",
          "type": "uint256"
        },
        {
          "internalType": "uint8",
          "name": "v",
          "type": "uint8"
        },
        {
          "internalType": "bytes32",
          "name": "r",
          "type": "bytes32"
        },
        {
          "internalType": "bytes32",
          "name": "s",
          "type": "bytes32"
        }
      ],
      "name": "claim",
      "outputs": [],
      "stateMutability": "nonpayable",
      "type": "function"
    },
    {
      "inputs": [
        {
          "internalType": "address",
          "name": "token",
          "type": "address"
        },
        {
          "internalType": "uint256",
          "name": "id",
          "type": "uint256"
        },
        {
          "internalType": "address",
          "name": "owner",
          "type": "address"
        },
        {
          "internalType": "uint256",
          "name": "value",
          "type": "uint256"
        }
      ],
      "name": "deposit",
      "outputs": [],
      "stateMutability": "nonpayable",
      "type": "function"
    },
    {
      "inputs": [
        {
          "internalType": "bytes32",
          "name": "",
          "type": "bytes32"
        }
      ],
      "name": "nonces",
      "outputs": [
        {
          "internalType": "bool",
          "name": "",
          "type": "bool"
        }
      ],
      "stateMutability": "view",
      "type": "function"
    },
    {
      "inputs": [
        {
          "internalType": "address",
          "name": "operator",
          "type": "address"
        },
        {
          "internalType": "address",
          "name": "from",
          "type": "address"
        },
        {
          "internalType": "uint256[]",
          "name": "ids",
          "type": "uint256[]"
        },
        {
          "internalType": "uint256[]",
          "name": "values",
          "type": "uint256[]"
        },
        {
          "internalType": "bytes",
          "name": "data",
          "type": "bytes"
        }
      ],
      "name": "onERC1155BatchReceived",
      "outputs": [
        {
          "internalType": "bytes4",
          "name": "",
          "type": "bytes4"
        }
      ],
      "stateMutability": "nonpayable",
      "type": "function"
    },
    {
      "inputs": [
        {
          "internalType": "address",
          "name": "operator",
          "type": "address"
        },
        {
          "internalType": "address",
          "name": "from",
          "type": "address"
        },
        {
          "internalType": "uint256",
          "name": "id",
          "type": "uint256"
        },
        {
          "internalType": "uint256",
          "name": "value",
          "type": "uint256"
        },
        {
          "internalType": "bytes",
          "name": "data",
          "type": "bytes"
        }
      ],
      "name": "onERC1155Received",
      "outputs": [
        {
          "internalType": "bytes4",
          "name": "",
          "type": "bytes4"
        }
      ],
      "stateMutability": "nonpayable",
      "type": "function"
    },
    {
      "inputs": [
        {
          "internalType": "address",
          "name": "token",
          "type": "address"
        },
        {
          "internalType": "uint256",
          "name": "id",
          "type": "uint256"
        },
        {
          "internalType": "address",
          "name": "owner",
          "type": "address"
        },
        {
          "internalType": "string",
          "name": "psw",
          "type": "string"
        },
        {
          "internalType": "uint256",
          "name": "deadline",
          "type": "uint256"
        },
        {
          "internalType": "uint8",
          "name": "v",
          "type": "uint8"
        },
        {
          "internalType": "bytes32",
          "name": "r",
          "type": "bytes32"
        },
        {
          "internalType": "bytes32",
          "name": "s",
          "type": "bytes32"
        }
      ],
      "name": "password",
      "outputs": [],
      "stateMutability": "nonpayable",
      "type": "function"
    },
    {
      "inputs": [
        {
          "internalType": "bytes4",
          "name": "interfaceId",
          "type": "bytes4"
        }
      ],
      "name": "supportsInterface",
      "outputs": [
        {
          "internalType": "bool",
          "name": "",
          "type": "bool"
        }
      ],
      "stateMutability": "view",
      "type": "function"
    },
    {
      "inputs": [
        {
          "internalType": "address",
          "name": "",
          "type": "address"
        },
        {
          "internalType": "uint256",
          "name": "",
          "type": "uint256"
        },
        {
          "internalType": "address",
          "name": "",
          "type": "address"
        }
      ],
      "name": "tokenUserBalance",
      "outputs": [
        {
          "internalType": "uint256",
          "name": "",
          "type": "uint256"
        }
      ],
      "stateMutability": "view",
      "type": "function"
    },
    {
      "inputs": [
        {
          "internalType": "address",
          "name": "token",
          "type": "address"
        },
        {
          "internalType": "uint256",
          "name": "id",
          "type": "uint256"
        },
        {
          "internalType": "address",
          "name": "spender",
          "type": "address"
        },
        {
          "internalType": "uint256",
          "name": "value",
          "type": "uint256"
        }
      ],
      "name": "withdraw",
      "outputs": [],
      "stateMutability": "nonpayable",
      "type": "function"
    }
  ],
  "bytecode": "0x608060405234801561001057600080fd5b506100216301ffc9a760e01b610155565b610031630271189760e51b610155565b604080518082018252600881526742616e6b3131353560c01b602091820152815180830183526001808252603160f81b9183019190915282517f8b73c3c69bb8fe3d512ecc4cf759cc79239f7b179b0ffacaa9a75d522b39400f818401527f47255516b75e0b6b5913e302fe3b8ffecc7740facbb54a27d4a0a2dce11d4d4c818501527fc89efdaa54c0f20c7adf612882df0950f5a951637e0307cdcb4c672f298b8bc660608201524660808201523060a0808301919091528451808303909101815260c09091019093528251929091019190912090557f242444289e23ce6db820d71eb5a872b74ab417877a6bc4b88ff9c0c982f42aa86002557fe1a52c71772aeec2cad9cac0dbd56513ea655223347c5201ca618b6d314300ec6003556101d9565b6001600160e01b031980821614156101b4576040805162461bcd60e51b815260206004820152601c60248201527f4552433136353a20696e76616c696420696e7465726661636520696400000000604482015290519081900360640190fd5b6001600160e01b0319166000908152602081905260409020805460ff19166001179055565b611214806101e86000396000f3fe608060405234801561001057600080fd5b50600436106100b45760003560e01c80636b0509b1116100715780636b0509b1146102b257806390d25074146102ba5780639e317f12146102f4578063bc197c8114610311578063c2d7ccdb14610455578063f23a6e611461045d576100b4565b806301ffc9a7146100b95780631d570d04146100f45780633644e515146101505780633a84d0511461016a5780634aa57216146102425780634b2084e314610278575b600080fd5b6100e0600480360360208110156100cf57600080fd5b50356001600160e01b0319166104f0565b604080519115158252519081900360200190f35b61014e600480360361010081101561010b57600080fd5b506001600160a01b038135811691602081013591604082013581169160608101359091169060808101359060ff60a0820135169060c08101359060e0013561050f565b005b61015861089d565b60408051918252519081900360200190f35b61014e600480360361010081101561018157600080fd5b6001600160a01b038235811692602081013592604082013590921691810190608081016060820135600160201b8111156101ba57600080fd5b8201836020820111156101cc57600080fd5b803590602001918460018302840111600160201b831117156101ed57600080fd5b91908080601f01602080910402602001604051908101604052809392919081815260200183838082843760009201919091525092955050823593505060ff6020830135169160408101359150606001356108a3565b6101586004803603606081101561025857600080fd5b506001600160a01b03813581169160208101359160409091013516610c93565b61014e6004803603608081101561028e57600080fd5b506001600160a01b0381358116916020810135916040820135169060600135610cb6565b610158610e2f565b61014e600480360360808110156102d057600080fd5b506001600160a01b0381358116916020810135916040820135169060600135610e35565b6100e06004803603602081101561030a57600080fd5b5035610f24565b610438600480360360a081101561032757600080fd5b6001600160a01b038235811692602081013590911691810190606081016040820135600160201b81111561035a57600080fd5b82018360208201111561036c57600080fd5b803590602001918460208302840111600160201b8311171561038d57600080fd5b919390929091602081019035600160201b8111156103aa57600080fd5b8201836020820111156103bc57600080fd5b803590602001918460208302840111600160201b831117156103dd57600080fd5b919390929091602081019035600160201b8111156103fa57600080fd5b82018360208201111561040c57600080fd5b803590602001918460018302840111600160201b8311171561042d57600080fd5b509092509050610f39565b604080516001600160e01b03199092168252519081900360200190f35b610158611054565b610438600480360360a081101561047357600080fd5b6001600160a01b03823581169260208101359091169160408201359160608101359181019060a081016080820135600160201b8111156104b257600080fd5b8201836020820111156104c457600080fd5b803590602001918460018302840111600160201b831117156104e557600080fd5b50909250905061105a565b6001600160e01b03191660009081526020819052604090205460ff1690565b4284101561054e5760405162461bcd60e51b81526004018080602001828103825260218152602001806111556021913960400191505060405180910390fd5b600154600254604080516020808201939093526001600160a01b03808d1682840152606082018c9052808b166080830152891660a082015260c08082018990528251808303909101815260e08201835280519084012061190160f01b6101008301526101028201949094526101228082019490945281518082039094018452610142018152825192820192909220600081815260049092529190205460ff161561063f576040805162461bcd60e51b815260206004820152601f60248201527f42616e6b313135353a3a636c61696d3a20657870697265642064696765737400604482015290519081900360640190fd5b600060018286868660405160008152602001604052604051808581526020018460ff1681526020018381526020018281526020019450505050506020604051602081039080840390855afa15801561069b573d6000803e3d6000fd5b5050604051601f1901519150506001600160a01b038116158015906106d15750876001600160a01b0316816001600160a01b0316145b61070c5760405162461bcd60e51b81526004018080602001828103825260228152602001806111bd6022913960400191505060405180910390fd5b6001600160a01b03808b1660009081526005602090815260408083208d84528252808320938c168352929052205460011115610788576040805162461bcd60e51b815260206004820152601660248201527542616e6b313135353a3a636c61696d3a206f68206e6f60501b604482015290519081900360640190fd5b6001600160a01b038a811660008181526005602090815260408083208e845282528083208d8616845290915280822080546000190190558051637921219560e11b8152306004820152938b166024850152604484018d90526001606485015260a0608485015260a4840182905251919263f242432a9260e4808301939282900301818387803b15801561081a57600080fd5b505af115801561082e573d6000803e3d6000fd5b505050600083815260046020908152604091829020805460ff1916600117905581516001600160a01b038b811682529251838d1694508d938f16927f47e33510b7d5f9240a1e4ceef4d03aeb1042bc91766bc62320cbda8f318e7c62928290030190a450505050505050505050565b60015481565b428410156108e25760405162461bcd60e51b81526004018080602001828103825260248152602001806111316024913960400191505060405180910390fd5b60006001546003548a8a8a8a8a60405160200180878152602001866001600160a01b03168152602001858152602001846001600160a01b0316815260200180602001838152602001828103825284818151815260200191508051906020019080838360005b8381101561095f578181015183820152602001610947565b50505050905090810190601f16801561098c5780820380516001836020036101000a031916815260200191505b5060408051601f19818403018152828252805160209182012061190160f01b82850152602284019c909c5260428084019c909c528151808403909c018c52606290920181528a519a82019a909a206000818152600490925299902054989950505060ff909616159550610a369450505050505760405162461bcd60e51b81526004018080602001828103825260228152602001806111766022913960400191505060405180910390fd5b600060018286868660405160008152602001604052604051808581526020018460ff1681526020018381526020018281526020019450505050506020604051602081039080840390855afa158015610a92573d6000803e3d6000fd5b5050604051601f1901519150506001600160a01b03811615801590610ac85750876001600160a01b0316816001600160a01b0316145b610b035760405162461bcd60e51b81526004018080602001828103825260258152602001806111986025913960400191505060405180910390fd5b6001600160a01b03808b1660009081526005602090815260408083208d84528252808320938c168352929052205460011115610b7f576040805162461bcd60e51b815260206004820152601660248201527542616e6b313135353a3a636c61696d3a206f68206e6f60501b604482015290519081900360640190fd5b6001600160a01b038a811660008181526005602090815260408083208e84528252808320948d16835293905282812080546000190190558251637921219560e11b8152306004820152336024820152604481018d90526001606482015260a0608482015260a481018290529251919263f242432a9260e4808301939282900301818387803b158015610c1057600080fd5b505af1158015610c24573d6000803e3d6000fd5b505050600083815260046020908152604091829020805460ff19166001179055815133815291516001600160a01b03808d1694508d93908f16927f1be3f8b8171458dca0bd407525862f7f9eb66cda4eedc1e54610049e2921906692918290030190a450505050505050505050565b600560209081526000938452604080852082529284528284209052825290205481565b6001600160a01b03841660009081526005602090815260408083208684528252808320338452909152902054811115610d36576040805162461bcd60e51b815260206004820152601960248201527f42616e6b313135353a3a77697468647261773a206f68206e6f00000000000000604482015290519081900360640190fd5b6001600160a01b0384811660008181526005602090815260408083208884528252808320338452909152808220805486900390558051637921219560e11b81523060048201529386166024850152604484018790526064840185905260a0608485015260a4840182905251919263f242432a9260e4808301939282900301818387803b158015610dc557600080fd5b505af1158015610dd9573d6000803e3d6000fd5b50505050816001600160a01b031683856001600160a01b03167f457f950b75085c30ff780acd57bde642ff1316cc4aad9f286af2c1ffc4163a78846040518082815260200191505060405180910390a450505050565b60025481565b60408051637921219560e11b8152336004820152306024820152604481018590526064810183905260a06084820152600060a4820181905291516001600160a01b0387169263f242432a9260e4808201939182900301818387803b158015610e9c57600080fd5b505af1158015610eb0573d6000803e3d6000fd5b505050506001600160a01b038481166000818152600560209081526040808320888452825280832094871680845294825291829020805486019055815185815291518793927fd2f8022f659fd9c8c558f30c00fd5ee7038f7cb56da45095c3e0e7d48b3e0c4b92908290030190a450505050565b60046020526000908152604090205460ff1681565b6000808215610f8657610f8184848080601f01602080910402602001604051908101604052809392919081815260200183838082843760009201919091525061112992505050565b610f88565b885b905060005b8781101561103d576000898983818110610fa357fe5b9050602002013590506000888884818110610fba57fe5b33600081815260056020908152604080832089845282528083206001600160a01b038c16808552908352928190208054958302979097013594850190965585518481529551939650909487945091927fd2f8022f659fd9c8c558f30c00fd5ee7038f7cb56da45095c3e0e7d48b3e0c4b9281900390910190a45050600101610f8d565b5063bc197c8160e01b9a9950505050505050505050565b60035481565b60008082156110a7576110a284848080601f01602080910402602001604051908101604052809392919081815260200183838082843760009201919091525061112992505050565b6110a9565b865b3360008181526005602090815260408083208b845282528083206001600160a01b0386168085529083529281902080548b01905580518a8152905194955091938a93927fd2f8022f659fd9c8c558f30c00fd5ee7038f7cb56da45095c3e0e7d48b3e0c4b92908290030190a45063f23a6e6160e01b979650505050505050565b601401519056fe42616e6b313135353a3a70617373776f72643a206578706972656420646561646c696e6542616e6b313135353a3a636c61696d3a206578706972656420646561646c696e6542616e6b313135353a3a70617373776f72643a20657870697265642064696765737442616e6b313135353a3a70617373776f72643a20696e76616c6964207369676e617475726542616e6b313135353a3a636c61696d3a20696e76616c6964207369676e6174757265a2646970667358221220ab8a20dd606bb52dd456c251b06c3c71ce4c01130448754fa64d117db03012d964736f6c634300060c0033",
  "linkReferences": {},
  "deployedLinkReferences": {}
}